{
  "contractName": "TakeFee",
  "abi": [
    {
      "inputs": [],
      "stateMutability": "nonpayable",
      "type": "constructor"
    },
    {
      "anonymous": false,
      "inputs": [
        {
          "indexed": true,
          "internalType": "address",
          "name": "oldFeeAddress",
          "type": "address"
        },
        {
          "indexed": true,
          "internalType": "address",
          "name": "newFeeAddress",
          "type": "address"
        }
      ],
      "name": "FeeAddressSet",
      "type": "event"
    },
    {
      "anonymous": false,
      "inputs": [
        {
          "indexed": true,
          "internalType": "uint256",
          "name": "oldFee",
          "type": "uint256"
        },
        {
          "indexed": true,
          "internalType": "uint256",
          "name": "newFee",
          "type": "uint256"
        }
      ],
      "name": "FeeSet",
      "type": "event"
    },
    {
      "anonymous": false,
      "inputs": [
        {
          "indexed": true,
          "internalType": "address",
          "name": "oldOwner",
          "type": "address"
        },
        {
          "indexed": true,
          "internalType": "address",
          "name": "newOwner",
          "type": "address"
        }
      ],
      "name": "OwnerSet",
      "type": "event"
    },
    {
      "inputs": [],
      "name": "fee",
      "outputs": [
        {
          "internalType": "uint256",
          "name": "",
          "type": "uint256"
        }
      ],
      "stateMutability": "view",
      "type": "function",
      "constant": true
    },
    {
      "inputs": [],
      "name": "owner",
      "outputs": [
        {
          "internalType": "address payable",
          "name": "",
          "type": "address"
        }
      ],
      "stateMutability": "view",
      "type": "function",
      "constant": true
    },
    {
      "inputs": [
        {
          "internalType": "address payable",
          "name": "newOwner",
          "type": "address"
        }
      ],
      "name": "changeOwner",
      "outputs": [],
      "stateMutability": "nonpayable",
      "type": "function"
    },
    {
      "inputs": [
        {
          "internalType": "address payable",
          "name": "newFeeAddress",
          "type": "address"
        }
      ],
      "name": "changeFeeAddress",
      "outputs": [],
      "stateMutability": "nonpayable",
      "type": "function"
    },
    {
      "inputs": [
        {
          "internalType": "uint256",
          "name": "newFee",
          "type": "uint256"
        }
      ],
      "name": "changeFee",
      "outputs": [],
      "stateMutability": "nonpayable",
      "type": "function"
    },
    {
      "inputs": [
        {
          "internalType": "uint256",
          "name": "amount",
          "type": "uint256"
        }
      ],
      "name": "calculateFee",
      "outputs": [
        {
          "internalType": "uint256",
          "name": "",
          "type": "uint256"
        }
      ],
      "stateMutability": "view",
      "type": "function",
      "constant": true
    },
    {
      "inputs": [
        {
          "internalType": "address payable",
          "name": "_to",
          "type": "address"
        }
      ],
      "name": "makeTransactionWithFee",
      "outputs": [],
      "stateMutability": "payable",
      "type": "function",
      "payable": true
    }
  ],
  "bytecode": "0x6080604052609660005534801561001557600080fd5b5033600160006101000a81548173ffffffffffffffffffffffffffffffffffffffff021916908373ffffffffffffffffffffffffffffffffffffffff160217905550600160009054906101000a900473ffffffffffffffffffffffffffffffffffffffff1673ffffffffffffffffffffffffffffffffffffffff16600073ffffffffffffffffffffffffffffffffffffffff167f342827c97908e5e2f71151c08502a66d44b6f758e3ac2f1de95f02eb95f0a73560405160405180910390a3600160009054906101000a900473ffffffffffffffffffffffffffffffffffffffff16600260006101000a81548173ffffffffffffffffffffffffffffffffffffffff021916908373ffffffffffffffffffffffffffffffffffffffff160217905550600260009054906101000a900473ffffffffffffffffffffffffffffffffffffffff1673ffffffffffffffffffffffffffffffffffffffff16600073ffffffffffffffffffffffffffffffffffffffff167f32c7f8c60f86ae20e5414c27c3d06e25fa775321683e23c95456c83d0ce0a65260405160405180910390a3610c2b806101c36000396000f3fe6080604052600436106100705760003560e01c806399a5d7471161004e57806399a5d747146100f2578063a6f9dae11461012f578063b1efcdaf14610158578063ddca3f431461017457610070565b8063285e1406146100755780636a1db1bf1461009e5780638da5cb5b146100c7575b600080fd5b34801561008157600080fd5b5061009c600480360381019061009791906107c1565b61019f565b005b3480156100aa57600080fd5b506100c560048036038101906100c091906107ea565b6102ef565b005b3480156100d357600080fd5b506100dc6103b9565b6040516100e991906108f5565b60405180910390f35b3480156100fe57600080fd5b50610119600480360381019061011491906107ea565b6103df565b6040516101269190610990565b60405180910390f35b34801561013b57600080fd5b50610156600480360381019061015191906107c1565b61044a565b005b610172600480360381019061016d91906107c1565b61059a565b005b34801561018057600080fd5b50610189610791565b6040516101969190610990565b60405180910390f35b600160009054906101000a900473ffffffffffffffffffffffffffffffffffffffff1673ffffffffffffffffffffffffffffffffffffffff163373ffffffffffffffffffffffffffffffffffffffff161461022f576040517f08c379a000000000000000000000000000000000000000000000000000000000815260040161022690610930565b60405180910390fd5b8073ffffffffffffffffffffffffffffffffffffffff16600260009054906101000a900473ffffffffffffffffffffffffffffffffffffffff1673ffffffffffffffffffffffffffffffffffffffff167f32c7f8c60f86ae20e5414c27c3d06e25fa775321683e23c95456c83d0ce0a65260405160405180910390a380600260006101000a81548173ffffffffffffffffffffffffffffffffffffffff021916908373ffffffffffffffffffffffffffffffffffffffff16021790555050565b600160009054906101000a900473ffffffffffffffffffffffffffffffffffffffff1673ffffffffffffffffffffffffffffffffffffffff163373ffffffffffffffffffffffffffffffffffffffff161461037f576040517f08c379a000000000000000000000000000000000000000000000000000000000815260040161037690610930565b60405180910390fd5b806000547f74dbbbe280ef27b79a8a0c449d5ae2ba7a31849103241d0f98df70bbc9d03e3760405160405180910390a38060008190555050565b600160009054906101000a900473ffffffffffffffffffffffffffffffffffffffff1681565b600081612710811015610427576040517f08c379a000000000000000000000000000000000000000000000000000000000815260040161041e90610910565b60405180910390fd5b6127106000548461043891906109f8565b61044291906109c7565b915050919050565b600160009054906101000a900473ffffffffffffffffffffffffffffffffffffffff1673ffffffffffffffffffffffffffffffffffffffff163373ffffffffffffffffffffffffffffffffffffffff16146104da576040517f08c379a00000000000000000000000000000000000000000000000000000000081526004016104d190610930565b60405180910390fd5b8073ffffffffffffffffffffffffffffffffffffffff16600160009054906101000a900473ffffffffffffffffffffffffffffffffffffffff1673ffffffffffffffffffffffffffffffffffffffff167f342827c97908e5e2f71151c08502a66d44b6f758e3ac2f1de95f02eb95f0a73560405160405180910390a380600160006101000a81548173ffffffffffffffffffffffffffffffffffffffff021916908373ffffffffffffffffffffffffffffffffffffffff16021790555050565b346127108110156105e0576040517f08c379a00000000000000000000000000000000000000000000000000000000081526004016105d790610910565b60405180910390fd5b6000612710600054346105f391906109f8565b6105fd91906109c7565b90506000813461060d9190610a52565b905060008473ffffffffffffffffffffffffffffffffffffffff1682604051610635906108e0565b60006040518083038185875af1925050503d8060008114610672576040519150601f19603f3d011682016040523d82523d6000602084013e610677565b606091505b50509050806106bb576040517f08c379a00000000000000000000000000000000000000000000000000000000081526004016106b290610950565b60405180910390fd5b6000600260009054906101000a900473ffffffffffffffffffffffffffffffffffffffff1673ffffffffffffffffffffffffffffffffffffffff1684604051610703906108e0565b60006040518083038185875af1925050503d8060008114610740576040519150601f19603f3d011682016040523d82523d6000602084013e610745565b606091505b5050905080610789576040517f08c379a000000000000000000000000000000000000000000000000000000000815260040161078090610970565b60405180910390fd5b505050505050565b60005481565b6000813590506107a681610bc7565b92915050565b6000813590506107bb81610bde565b92915050565b6000602082840312156107d357600080fd5b60006107e184828501610797565b91505092915050565b6000602082840312156107fc57600080fd5b600061080a848285016107ac565b91505092915050565b61081c81610a86565b82525050565b600061082f6013836109b6565b915061083a82610b20565b602082019050919050565b60006108526013836109b6565b915061085d82610b49565b602082019050919050565b60006108756014836109b6565b915061088082610b72565b602082019050919050565b60006108986000836109ab565b91506108a382610b9b565b600082019050919050565b60006108bb6012836109b6565b91506108c682610b9e565b602082019050919050565b6108da81610ab8565b82525050565b60006108eb8261088b565b9150819050919050565b600060208201905061090a6000830184610813565b92915050565b6000602082019050818103600083015261092981610822565b9050919050565b6000602082019050818103600083015261094981610845565b9050919050565b6000602082019050818103600083015261096981610868565b9050919050565b60006020820190508181036000830152610989816108ae565b9050919050565b60006020820190506109a560008301846108d1565b92915050565b600081905092915050565b600082825260208201905092915050565b60006109d282610ab8565b91506109dd83610ab8565b9250826109ed576109ec610af1565b5b828204905092915050565b6000610a0382610ab8565b9150610a0e83610ab8565b9250817fffffffffffffffffffffffffffffffffffffffffffffffffffffffffffffffff0483118215151615610a4757610a46610ac2565b5b828202905092915050565b6000610a5d82610ab8565b9150610a6883610ab8565b925082821015610a7b57610a7a610ac2565b5b828203905092915050565b6000610a9182610a98565b9050919050565b600073ffffffffffffffffffffffffffffffffffffffff82169050919050565b6000819050919050565b7f4e487b7100000000000000000000000000000000000000000000000000000000600052601160045260246000fd5b7f4e487b7100000000000000000000000000000000000000000000000000000000600052601260045260246000fd5b7f416d6f756e7420697320746f6f20736d616c6c00000000000000000000000000600082015250565b7f43616c6c6572206973206e6f74206f776e657200000000000000000000000000600082015250565b7f4661696c656420746f2073656e64204574686572000000000000000000000000600082015250565b50565b7f4661696c656420746f2073656e64204665650000000000000000000000000000600082015250565b610bd081610a86565b8114610bdb57600080fd5b50565b610be781610ab8565b8114610bf257600080fd5b5056fea264697066735822122050381988bb9649b59d8bac27465653324584806e5685d16bb7965ec4fbce5ab764736f6c63430008040033",
  "immutableReferences": {},
  "source": "// SPDX-License-Identifier: MIT\npragma solidity >=0.8.0 <0.9.0;\n\ncontract TakeFee {\n  uint public fee = 150; // 1.5%\n  address payable public owner;\n  address payable internal feeAddress;\n\n  // events for EVM logging\n  event OwnerSet(address indexed oldOwner, address indexed newOwner);\n  event FeeAddressSet(address indexed oldFeeAddress, address indexed newFeeAddress);\n  event FeeSet(uint indexed oldFee, uint indexed newFee);\n\n  // modifier to check if caller is owner\n  modifier isOwner() {\n    require(msg.sender == owner, \"Caller is not owner\");\n    _;\n  }\n\n  // modifier to check if amount enought to correnctly get percentage\n  modifier notTooSmall(uint amount) {\n    require(amount >= 10000, \"Amount is too small\");\n    _;\n  }\n\n  constructor() {\n    owner = payable(msg.sender);\n    emit OwnerSet(address(0), owner);\n    feeAddress = owner;\n    emit FeeAddressSet(address(0), feeAddress);\n  }\n\n  function changeOwner(address payable newOwner) public isOwner {\n    emit OwnerSet(owner, newOwner);\n    owner = newOwner;\n  }\n\n  function changeFeeAddress(address payable newFeeAddress) public isOwner {\n    emit FeeAddressSet(feeAddress, newFeeAddress);\n    feeAddress = newFeeAddress;\n  }\n\n  /**\n  * @dev Change fee\n  * @param newFee percentage in bassis point 0.01%\n  */\n  function changeFee(uint newFee) public isOwner {\n    emit FeeSet(fee, newFee);\n    fee = newFee;\n  }\n\n  function calculateFee(uint amount) external view notTooSmall(amount) returns (uint) {\n      return amount * fee / 10_000;\n  }\n\n  function makeTransactionWithFee(address payable _to) public payable notTooSmall(msg.value) {\n      uint feeAmount = msg.value * fee / 10_000;\n      uint amountLeft = msg.value - feeAmount;\n      (bool successTransfer,) = _to.call{value: amountLeft}(\"\");\n      require(successTransfer, \"Failed to send Ether\");\n      (bool successFee,) = feeAddress.call{value: feeAmount}(\"\");\n      require(successFee, \"Failed to send Fee\");\n  }\n}",
  "sourcePath": "/home/inner/dev/crypto/truffle-start/contracts/TakeFee.sol",
  "compiler": {
    "name": "solc",
    "version": "0.8.4+commit.c7e474f2.Emscripten.clang"
  },
  "schemaVersion": "3.4.1",
  "updatedAt": "2021-06-09T11:16:29.295Z",
  "networkType": "ethereum",
  "devdoc": {
    "kind": "dev",
    "methods": {
      "changeFee(uint256)": {
        "details": "Change fee",
        "params": {
          "newFee": "percentage in bassis point 0.01%"
        }
      }
    },
    "version": 1
  },
  "userdoc": {
    "kind": "user",
    "methods": {},
    "version": 1
  }
}